:10000000D0C1EAC1E9C1E8C1E7C1E6C17DC4E4C12C
:10001000E3C1E2C1E1C1E0C1DFC1DEC1DDC1DCC1DC
:10002000DBC1CF01B6026D052308DA0A900D471037
:10003000FD12B4156A18201BD71D8D204423FA2504
:10004000B128672B1E2ED4308A334136F738AE3BA9
:10005000643E1B41D14388463E49F44BAB4E61514F
:100060001854CE5685593B5CF25EA8615E641567F4
:10007000CB6920EE80FA887BA0FEE2DEA87FB8770D
:10008000EA5FEE1DFA577B47FE15DE117F05770408
:100090005F01010004001000400000010004001096
:1000A0000040202520200A02AA000102F801EF01E9
:1000B000E601DD01D401CB01C201B901B001A70104
:1000C0009E0195018C0183017A01710168015F0134
:1000D00056014D0144013B01320129012001170164
:1000E0000E010501FC00F300EA0008040A090E7085
:1000F00090502008205090700E090A0408FFFEFC62
:10010000F8F8FCFEFF0880C0E0F0F8FCFEFF0800F5
:10011000000000183C7EFF080000000008040201F7
:10012000080030404E52221C00080038484E72121F
:100130001C00080000402011121408080038444632
:100140004A320408080030404649320408080000DA
:10015000442A11280400081020404831120C0008DD
:100160001028488811221C0008002040A0140C040C
:1001700000080038444242221C0008FF7F3F1F1F36
:100180003F7FFF08FF7F3F1F0F07030108FF7E3CF3
:100190001800000000088040201000000000080047
:1001A00038444A72020C00080038484E72121C0093
:1001B0000810284888040200000810204C526222CF
:1001C0001C000810204C9262020C000800201488C9
:1001D00054220000080030488C120204080800383D
:1001E0004488111214080800203028050204000871
:1001F0000038444242221C000880607C24243E06D1
:100200000108000000000000000098038F0386032F
:100210007D0374036B0362035903500347033E03DA
:1002200035032C0323031A0311030803FF02F6020C
:10023000ED02E402DB02D202C902C002B702AE0242
:10024000A5029C0293028A02810278026F02660272
:100250005D0254020833808001018080330866000B
:1002600081810000819908CC010180800101CC08C6
:1002700099810000818100660800000018180000C4
:100280000008205090700E090A0408040A090E7034
:100290009050200881C3E7FFFFFFFFFF080103071D
:1002A0000F1F3F7FFF080103070F0F07030108011E
:1002B0000204080000000008001C12124A44380022
:1002C00008001C12724E48380008080402010E1083
:1002D000200008001C324944443800080814120960
:1002E00044443800080810221408142000080804A8
:1002F00002128C48300008080402728A4420100858
:1003000000000E040850201008001C22424244380D
:100310000008FFFFFFFFFFE7C38108FFFEFCF8F0C6
:10032000E0C0800880C0E0F0F0E0C080080000007D
:10033000001020408008001C225248483800080065
:100340001C12724E483800080004087080402010CB
:1003500008001C2222924C380008001C22229048DF
:10036000281008000428102844081008000C123136
:100370004840201008080422514E4020100808046C
:100380000A102070000008001C2242424438000875
:1003900001063E24247C608008000000000000006C
:1003A000000011241FBECFE5D2E0DEBFCDBF10E0BC
:1003B000A0E6B0E0E4E9FFE002C005900D92AE36A1
:1003C000B107D9F720E0AEE6B0E001C01D92AE3B28
:1003D000B207E1F7A4D1DCC513CE90917100913042
:1003E00031F427E0322F381B832F261B622F49134D
:1003F000885F40E070C590917100913031F437E032
:10040000532F581B852F361B632F4913885F422FAC
:1004100025C58FE08BBB80E88ABB80E991E09BBD5E
:100420008ABD19BC18BC80E28FBD82E08EBD8CB93C
:100430001CBE81E280BF84E083BF089540917200BA
:10044000509173009C01220F331F96958795280FBA
:10045000391F240F351F809172009091730082170D
:100460009307C9F70895883018F4683008F4B5CFB9
:100470008FEF0895883018F4683008F4BCCF0895E1
:1004800081118093600080916000982F990F87FF01
:1004900005C08DE189278093600002C090936000C1
:1004A000809160000895EF92FF920F931F93CF9376
:1004B000DF93E82E00E010E0F02EC0E0D0E09E01D7
:1004C000200F311F2430310544F027E04E2D6F2DD1
:1004D0008C2FD0DF88E090E0B1DF2196C830D105C5
:1004E00071F70F5F1F4F0830110531F7DF91CF9182
:1004F0001F910F91FF90EF900895FF920F931F931C
:10050000CF93DF93182FF62EC42FD22F402F622FB8
:100510008C2FA9DF811116C020E0402F6F2D812F75
:10052000A9DF809161009091620088DF2FE0402F69
:100530006D2F8C2F9FDF80916100909162007EDF94
:1005400081E001C080E0DF91CF911F910F91FF907A
:100550000895EF92FF920F931F93CF93DF93C62FCF
:10056000142FD82FD770C7706C2F8D2F7CDF81117F
:1005700006C080916F008F5F80936F0049C0EE24AA
:10058000E394EC0EFF24F394FD0E012F2E2D4F2D3E
:100590006C2F8D2FB2DF811126C090916E0081E00B
:1005A000992379F0892780936E00012F2C2F4F2DEE
:1005B0006C2F8D2FA2DF811116C0012F2E2D4D2FF4
:1005C0000DC080936E00012F2E2D4D2F6C2F8D2F7F
:1005D00094DF811108C0012F2C2F4F2D6C2F8D2FF0
:1005E0008CDF882321F010926F0080E011C0113061
:1005F00031F480916F008F5F80936F0002C0109282
:100600006F0027E0412F6C2F8D2F34DF80916F001A
:10061000DF91CF911F910F91FF90EF90089540E0EF
:1006200067E087E0DADE882381F041E060E080E087
:10063000D4DE81110AC020E040E067E087E0DBDE25
:100640002FE041E060E080E0D6CE0895EDD180E07B
:100650002ACF89B3887090917000891761F0882340
:1006600019F01092710003C091E090937100809393
:10067000700081E0089580E00895E82FF0E0EE0F2B
:10068000FF1FEE0FFF1FE60FF11DEE0FFF1FEE5DC8
:10069000FF4F859194918D3625E0920718F02AE05E
:1006A00030E002C025E030E030936200209361002A
:1006B00008958A3008F089E0637091E090936300B8
:1006C00093E19093640041110AC0805D80936500BE
:1006D00088E180936600665C609367000BC028E148
:1006E00020936400645D60936500909366008E5D66
:1006F0008093670010926800089584EF91E09EDE79
:1007000093D181E0809363008FE18093640080E265
:10071000809365008093660010926700089592D1DF
:1007200078DE789468E0E62E01E022E730E040E0F1
:1007300060E080E03CD322E730E040E060E088E029
:1007400036D388EE93E07ADE80E090E007D4D82EAE
:1007500085E08D1508F4D12C81E090E0FFD3837003
:10076000982E89B3809588708093700072DF6EDF59
:10077000692D8D2D82DFEC01A0907200B090730086
:10078000812C11E054E4752E64DF882389F061DF49
:10079000113029F05BDF692D8D2D6FDFEC01809129
:1007A0007200909173006CDE80E991E047DE11E009
:1007B000C89911C082E390E041DE111106C0D394C4
:1007C00086E0912CD81201C0D12CC89BFECF82E3C9
:1007D00090E034DE10E0C99910C082E390E02EDE94
:1007E000111105C0939484E0981201C0912CC99B0B
:1007F000FECF82E390E022DE10E0CA9923C082E3BC
:1008000090E01CDE123091F40FD148E0E42E01E0BC
:1008100022E730E040E060E080E0C9D222E730E04B
:1008200040E060E088E0C3D213E006C00FDF692D2E
:100830008D2D23DFEC0111E0CA9BFECF82E390E017
:10084000FDDD16C0111114C040917100692D8D2D70
:1008500030DF30E1C32EE12CF12C00E023E630E064
:1008600040E060E080E0D6D184E690E0E7DD8CCF28
:10087000113059F520917200309173002A193B090B
:100880002C173D0728F0A0907200B0907300C7DECF
:1008900080E0F6DD282F30E0482F4170B90104E0F8
:1008A000759567950A95E1F7C9019595879551DE8C
:1008B0008F3F09F069CF6D2D80E090E057D3692D0F
:1008C00081E090E053D319DF03C0123009F05CCF10
:1008D00010E1C12EE12CF12C00E023E630E040E0F5
:1008E00060E080E097D18394882D8370882E81E426
:1008F000880D80936500872D88198093660086E4B3
:1009000090E09CDD12E040CF1F920F920FB60F9245
:1009100011242F933F934F935F936F937F938F9304
:100920009F93AF93BF93EF93FF938AB59BB5805787
:100930009E4F9BBD8ABD809172009091730001967D
:10094000909373008093720078941ED0FF91EF9182
:10095000BF91AF919F918F917F916F915F914F91D7
:100960003F912F910F900FBE0F901F90189520E18F
:1009700097FF02C0C09A01C0C098880F991FC19804
:10098000C19A2150A9F70895CF93DF934091760043
:10099000411106C08091750081508370809375006D
:1009A0009091770088E0890F803110F088EF890FEF
:1009B000480FD2E0842F90E0880F991F880F991F6D
:1009C000E0917C00F0917D00E80FF91F8281938116
:1009D00020813181C8EFC40FC03110F0C8E0C40FCE
:1009E0004091750040FF03C08223932304C041114E
:1009F00002C0822B932BBBDFD15011F04C2FDACFEA
:100A000080917600811101C0C198C29A82E08A95D6
:100A1000F1F700C0C298809176008F5F8770809355
:100A20007600DF91CF910895E0917800F091790000
:100A300080E11382128211821082815034968111DA
:100A4000F8CF0895C098C198C298B89AB99ABA9A3E
:100A50008EE790E090937B0080937A0090937D00E6
:100A600080937C009093790080937800DDDF109272
:100A7000760083E0809375008FE080937400089582
:100A8000611103C0FC0180810895613019F4FC01FB
:100A900084910895623009F461C280E0089590E085
:100AA000A0E0B0E078E0880F991FAA1FBB1F292F94
:100AB0003A2F220F331F922FA32F7150A1F761FFFE
:100AC00004C0C9019695879502C080E090E063FF5D
:100AD00002C0822B932BFA019383828360FF04C0B0
:100AE000C9019695879502C080E090E062FF02C040
:100AF000822B932BFA01918380830895CF92DF920A
:100B0000EF92FF920F931F93CF93DF93FA01922FEF
:100B1000803108F076C0683008F073C02130B9F435
:100B20004281538120813181422B532B9A0136958A
:100B3000279525753575242B352BA901440F551F95
:100B4000C12CD12C76016A01C22AD32A05C0CC243B
:100B5000CA94DC2CE12CF12C20813181522F432FBF
:100B600022813381D22FC32FA62FB0E0AA0FBB1F43
:100B7000052F142F20E030E04D2F5C2F60E070E057
:100B8000E0E0CE2FD0E0CA17DB0774F4EF5FCC0CA7
:100B9000DD1CEE1CFF1C000F111F221F331F440F12
:100BA000551F661F771FEDCFC094D094E094F0944A
:100BB000E82FF0E0A0917800B0917900EE0FFF1FD0
:100BC000EE0FFF1FEA0FFB1F923059F480819181D5
:100BD0008027912791838083828193818427952721
:100BE0000EC0828193818C219D21A081B181AC2195
:100BF000BD21A02BB12BB183A083842B952B938394
:100C00008283DF91CF911F910F91FF90EF90DF9042
:100C1000CF9008952F923F924F925F926F927F9262
:100C20008F929F92AF92BF92CF92DF92EF92FF92FC
:100C30000F931F93CF93DF93CDB7DEB72A970FB6ED
:100C4000F894DEBF0FBECDBF282E68874987C90143
:100C50000A8720E130E0221931094C2D50E0241799
:100C600035071CF0C20CCF8202C020E12F834AE07E
:100C7000C42E42E0D42EE5E2EE8350E2352EFFE0B2
:100C8000FD83612C712C00E010E02F81221608F00A
:100C900072C04C01711043C02FEF821A920A6A850C
:100CA000EFDE803230F5882309F467C08330B8F472
:100CB000815090E0FC01EE0FFF1FEA55FF4FC590F9
:100CC000D490FC01EE0FFF1FEE55FF4F5F018FEF39
:100CD000A81AB80A3490F501F491FE834AC0803115
:100CE00008F447C0803111F4609443C08F708D8345
:100CF00040C0831508F43DC083192E81821708F087
:100D000038C0E82FF0E0EE0FFF1FEC0DFD1D8591C0
:100D100094915C01EFEFAE1ABE0AFC0174900E15BF
:100D20001F05C0F02501FFEF4F1A5F0AF5018491FE
:100D300061108095AE014F5F5F4F6D81B0DE2985F8
:100D4000AE014F5F5F4F6885822DD8DE23947A9481
:100D500052010FC0C801870D911DE816F90638F43D
:100D60000F5F1F4FFFEFAF1ABF0A7A9402C08C01CA
:100D7000712CC4018ACF80E001C081E02A960FB6B1
:100D8000F894DEBF0FBECDBFDF91CF911F910F91C1
:100D9000FF90EF90DF90CF90BF90AF909F908F909B
:100DA0007F906F905F904F903F902F900895BF92EB
:100DB000CF92DF92EF92FF920F931F93CF93DF9327
:100DC00000D000D0CDB7DEB7162FF42E6901E80EA3
:100DD000B82EBE14A9F1011110C0D6018D919C91BD
:100DE00011979A8389831296ED91FC911397FC8356
:100DF000EB83F60134966F011AC0013079F4F601E5
:100E0000A591B491BA83A983F601329684E0C80E05
:100E1000D11CA591B491BC83AB8309C0023039F4D5
:100E200094E0C90ED11C1A8219821C821B822F2DBC
:100E3000AE014F5F5F4F612F8B2D60DEB394C9CF42
:100E40000F900F900F900F90DF91CF911F910F9106
:100E5000FF90EF90DF90CF90BF900895E62FE7705E
:100E6000F0E0EE0FFF1FEE56FF4F259134918031D9
:100E700088F5683078F5D901AA0FBB1F90E0880F7C
:100E8000991F880F991FE0917800F0917900E80F81
:100E9000F91FBD01622B732B609570958281938140
:100EA0008623972341FF02C0822B932B43FF02C06E
:100EB0008A2B9B2B93838283808191818623972326
:100EC00040FF02C0822B932B42FF02C08A2B9B2B38
:100ED000918380830895E62FE770F0E0EE0FFF1F07
:100EE000EE56FF4F259134918031B0F56830A0F572
:100EF000411105C040917C0050917D0006C04130F9
:100F000059F540917A0050917B00B901660F771F27
:100F1000E82FF0E0EE0FFF1FEE0FFF1FE40FF51FAD
:100F200042815381CB0184239523892B11F088E0E2
:100F300001C080E042235323452B09F082604081A9
:100F4000518164237523672B09F0846024233523A2
:100F5000232B19F0816008958FEF0895E199FECF5A
:100F60009FBB8EBBE09A99278DB30895262FE199F8
:100F7000FECF9FBB8EBBE09A01970DB2021639F0EF
:100F80001CBA2DBB0FB6F894E29AE19A0FBE0895F1
:040F9000F894FFCF03
:0E0F9400780A002020202020202020200000AD
:00000001FF
